:020000040000FA
:020000000528D1
:080008002228831603139F0157
:1000100086018701C0308800073081008312C1301B
:100020009F000B118B168B17FF3092000C309D0038
:100030000730920078309B003F2086018701B7018E
:100040005A2021280B1D3E28B70A96303702031D7F
:100050003D285A20FB207E202908B1003108B2003B
:10006000A0203208B4003308B5003108B200B30153
:10007000B220B620C0202B28B7010B110900383060
:100080004A200C304A2001304A2006304A200230F3
:100090004A2008008600ED2007100715ED20071103
:1000A00008008600ED2007140715ED200711ED204C
:1000B000ED20080002304A205630512056305120A1
:1000C000453051204E305120473051204130512091
:1000D00020305120413051204C30512020305120CF
:1000E00053305120453051204E3051205330512053
:1000F0004F30512052305120FB2008001F15F620B0
:100100001F1980281E08A90008000A3028020318B9
:100110008A288E28373028075120080030302807D9
:1001200051200800AB01AC01AD012908AB002A0841
:10013000AB02031C9D28AC0A98282B07AD000800D1
:100140000630B600A42008000310B30C0310B20C54
:100150000318AD28AB28B313AF28B317AF28B60BDD
:10016000A42808003208B300B20108003308B5071C
:100170000318B40A0800B201B301B401B5010800C4
:100180003408A8008520B401B3012E3051200B3073
:10019000B600E3203408A8008520B401B3010B3079
:1001A000B600E3203408A8008520B401B3010B3069
:1001B000B600E3203408A8008520B401B30156300E
:1001C0005120FB200800B60BE8283308B5000800D2
:1001D0003508B3070318B40AE3280230A100A4309D
:1001E000A000A00BF128A10BEF2808003030A400DC
:1001F000A40BF82808001C30A700F530A600F23048
:10020000A500A50B0129A60BFF28A70BFD280800B8
:00000001FF
