:020000040000FA
:020000000528D1
:080008002028831603139F0159
:1000100086018701C0308808073081008312C13013
:100020009F000B118B168B17FF3092000C309D0038
:100030000730920078309B0086018701A0011F28BD
:100040000B1D2A28A00A96302002031D29288609A4
:10005000A0010B110900383036200C303620013059
:100060003620063036200230362008008600462032
:100070000710071546208710080086004620071441
:100080000715462087104620462008000230A200AF
:0E009000A430A100A10B4A28A20B48280800AA
:00000001FF
