:020000040000FA
:020000000528D1
:06000A008501860187015B
:1000100088018316031300308600FF308700FF300D
:10002000880007309F0000308500831230200708C9
:1000300002303B20483042206F3042206C3042205A
:1000400061304220C0303B204D304220753042208C
:100050006E304220643042206F30422066201628E5
:1000600038303B200C303B2001303B2006303B2019
:1000700002303B2008008600732005108514732091
:1000800085100800860073200514851473208510E0
:100090007320732008000A302702031850285428C0
:1000A0003730270742200800303027074220080059
:1000B000AA01AB01AC012808AA002908AA02031C66
:1000C0006328AB0A5E282A07AC0008001C30A60093
:1000D000F530A500F230A400A40B6C28A50B6A280B
:1000E000A60B682808000230A100A430A000A00BD5
:0800F0007728A10B7528080018
:00000001FF
