:020000040000FA
:020000000528D1
:080008002228831603139F0157
:1000100086018701FF308800073081008312C130DC
:100020009F000B118B168B17FF3092000C309D0038
:100030000730920000309B006A2086018701B701DB
:100040008B2021280B1D5F28B70A96303702031D2D
:100050005E28B701081C2A28DB20C4307520352112
:100060002908B1003108B20057213208B400330822
:10007000B5003108B200B30169216D217721033049
:10008000BB003808BB02031CB1280330BB00380892
:10009000BB02031D1D290730BB003908BB02031C2E
:1000A000B1280730BB003808BB02031D1D290330EF
:1000B000BB003A08BB02031CB1281D290B11090023
:1000C000881C1D298520F9208715B721B721B72164
:1000D00087110528383075200C30752001307520C7
:1000E000063075200230752008008600A92107100F
:1000F0000715A921071108008600A9210714071573
:10010000A9210711A921A921080096309B00B72138
:10011000B7219B0108006A20A921A921A9218130CA
:10012000752056307C2045307C204E307C20473076
:100130007C2041307C2020307C2041307C204C30A1
:100140007C2020307C2053307C2045307C204E3079
:100150007C2053307C204F307C2052307C20B721D3
:1001600008006A20A921A921A921833075205630D1
:100170007C2049307C2053307C2049307C20543016
:100180007C2045307C2020307C2055307C204E3037
:100190007C20643075204D307C2045307C204430FC
:1001A0007C2049307C2043307C204F307C20B7219C
:1001B000B721B72105286A20A921A921A9218330C7
:1001C000752054307C2045307C204D307C205030D0
:1001D0007C2045307C2052307C2041307C205430C3
:1001E0007C2055307C2052307C2041307C20B7214F
:1001F00008006A20A921A921A92181307520503049
:100200007C2055307C2045307C2044307C2045309B
:100210007C2020307C2049307C204E307C204730B0
:100220007C2052307C2045307C2053307C20413073
:100230007C2052307C20B72108006A20A921A92106
:10024000A9218330752054307C204F307C204D30E4
:100250007C2045307C2020307C2047307C2045307D
:100260007C204C307C20B72160281F15B2211F193B
:1002700037291E08A90008000A302802031841295E
:100280004529373028077C200800303028077C209B
:100290000800AB01AC01AD012908AB002A08AB0294
:1002A000031C5429AC0A4F292B07AD000800063067
:1002B000B6005B2108000310B30C0310B20C031846
:1002C00064296229B3136629B3176629B60B5B2923
:1002D00008003208B300B20108003308B50703185C
:1002E000B40A0800B201B301B401B501080020301E
:1002F0007C203408A800B8003C21B401B3010B30C5
:10030000B6009F213408A800B9003C21B401B30114
:100310002E307C200B30B6009F213408A800BA0094
:100320003C21B401B3010B30B6009F213408A80072
:100330003C21B401B30143307C20B7210800B60B47
:10034000A4293308B50008003508B3070318B40A18
:100350009F290230A100A430A000A00BAD29A10B61
:10036000AB2908003030A400A40BB42908001C30CD
:10037000A700F530A600F230A500A50BBD29A60BFD
:08038000BB29A70BB9290800F5
:00000001FF
