:020000040000FA
:020000000528D1
:080008002228831603139F0157
:1000100086018701C0308800073081008312C1301B
:100020009F000B118B168B17FF3092000C309D0038
:100030000730920078309B002E2086018701A001B6
:10004000492021280B1D2D28A00A96302002031DCF
:100050002C28081C2928A0010B1109003830392050
:100060000C30392001303920063039200230392057
:10007000080086007220071007157220071108007B
:100080008600722007140715722007117220722053
:1000900008008030392056304020453040204E3016
:1000A0004020473040204130402020304020413027
:1000B00040204C30402020304020533040204530FC
:1000C00040204E304020533040204F3040205230AE
:1000D000402080206A281F157B201F196D281E08CC
:1000E000A30008000230A200A430A100A10B7628D2
:1000F000A20B742808003030A400A40B7D2808004F
:100100001C30A700F530A600F230A500A50B86280C
:0A011000A60B8428A70B8228080024
:00000001FF
