:020000040000FA
:020000000528D1
:080008002228831603139F0157
:1000100086018701C0308800073081008312C1301B
:100020009F000B118B168B17FF3092000C309D0038
:100030000730920078309B00442086018701B70189
:100040005F2021280B1D4328B70A96303702031D75
:1000500042285F20032101304F2080304F20F520BF
:1000600083202908B1003108B200A5203208B4006D
:100070003308B5003108B200B301B720BB20C5205A
:100080002B28B7010B11090038304F200C304F20BE
:1000900001304F2006304F2002304F2008008600EC
:1000A000F52007100715F520071108008600F52038
:1000B00007140715F5200711F520F5200800023078
:1000C0004F205630562056305620453056204E3060
:1000D000562047305620413056202030562041309F
:1000E00056204C3056202030562053305620453074
:1000F00056204E305620533056204F305620523026
:100100005620032108001F15FE201F1985281E08F0
:10011000A90008000A30280203188F2893283730D6
:100120002807562008003030280756200800AB0169
:10013000AC01AD012908AB002A08AB02031CA228C0
:10014000AC0A9D282B07AD0008000630B600A92098
:1001500008000310B30C0310B20C0318B228B02827
:10016000B313B428B317B428B60BA9280800320873
:10017000B300B20108003308B5070318B40A080039
:10018000B201B301B401B501080020305620340893
:10019000A800B8008A20B401B3010B30B600EB20F0
:1001A0003408A8008A20B401B3012E3056200B3049
:1001B000B600EB203408A8008A20B401B3010B304C
:1001C000B600EB203408A8008A20B401B301433004
:1001D000562003210800B60BF0283308B5000800AC
:1001E0003508B3070318B40AEB280230A100A43085
:1001F000A000A00BF928A10BF72808003030A400BC
:10020000A40B002908001C30A700F530A600F2302E
:10021000A500A50B0929A60B0729A70B052908008E
:00000001FF
