:020000040000FA
:020000000528D1
:080008002028831603139F0159
:1000100086018701C0308800073081008312C1301B
:100020009F000B118B168B17FF3092000C309D0038
:100030000730920078309B0086018701A0011F28BD
:100040000B1D2A28A00A96302002031D29288609A4
:10005000A0010B110900383036200C303620013059
:1000600036200630362002303620080086004D202B
:10007000071007154D208710080086004D20071433
:1000800007154D2087104D204D2008001F155620C4
:100090001F1948281E08A30008000230A200A4303F
:1000A000A100A10B5128A20B4F2808003030A4005A
:0600B000A40B5828080013
:00000001FF
