:020000040000FA
:020000000528D1
:080008002228831603139F0157
:1000100086018701C0308800073081008312C1301B
:100020009F000B118B168B17FF3092000C309D0038
:100030000730920000309B005F2086018701B701E6
:100040007F2021280B1D5E28B70A96303702031D3A
:100050005D287A20B701CF20C4306A2029212908E1
:10006000B1003108B2004B213208B4003308B500AA
:100070003108B200B3015D2161216B210330BB0067
:100080003808BB02031CA5280330BB003808BB029C
:10009000031D11290730BB003908BB02031CA5282A
:1000A0000730BB003808BB02031D11290330BB0019
:1000B0003A08BB02031CA52811290B11090038308E
:1000C0006A200C306A2001306A2006306A20023033
:1000D0006A20080086009D21071007159D21071141
:1000E000080086009D21071407159D2107119D21F9
:1000F0009D21080096309B00AB219B0108005F20EA
:100100009D219D219D2181306A20563071204530EE
:1001100071204E30712047307120413071202030E5
:100120007120413071204C307120203071205330CB
:100130007120453071204E307120533071204F3086
:10014000712052307120AB2108005F209D219D213C
:100150009D2183306A205630712049307120533000
:100160007120493071205430712045307120203089
:100170007120553071204E30712064306A204D302E
:100180007120453071204430712049307120433056
:1001900071204F307120AB21AB21AB2105285F20AE
:1001A0009D219D219D2183306A205430712045304E
:1001B00071204D3071205030712045307120523007
:1001C00071204130712054307120553071205230EF
:1001D000712041307120AB2108005F209D219D21BD
:1001E0009D2181306A20503071205530712045307A
:1001F0007120443071204530712020307120493009
:1002000071204E30712047307120523071204530BE
:100210007120533071204130712052307120AB2158
:1002200008005F209D219D219D2183306A2054304C
:1002300071204F3071204D307120453071202030B9
:10024000712047307120453071204C307120AB2136
:1002500005281F15A6211F192B291E08A900080013
:100260000A30280203183529392937302807712028
:1002700008003030280771200800AB01AC01AD0147
:100280002908AB002A08AB02031C4829AC0A432901
:100290002B07AD0008000630B6004F210800031000
:1002A000B30C0310B20C031858295629B3135A295A
:1002B000B3175A29B60B4F2908003208B300B20110
:1002C00008003308B5070318B40A0800B201B301E7
:1002D000B401B5010800203071203408A800B8002E
:1002E0003021B401B3010B30B60093213408A800CB
:1002F000B9003021B401B3012E3071200B30B600AB
:1003000093213408A800BA003021B401B3010B30A6
:10031000B60093213408A8003021B401B301433062
:100320007120AB210800B60B98293308B5000800EE
:100330003508B3070318B40A93290230A100A4308A
:10034000A000A00BA129A10B9F2908003030A40018
:10035000A40BA82908001C30A700F530A600F23035
:10036000A500A50BB129A60BAF29A70BAD29080045
:00000001FF
