:020000040000FA
:020000000528D1
:080008002228831603139F0157
:1000100086018701C0308800073081008312C1301B
:100020009F000B118B168B17FF3092000C309D0038
:100030000730920078309B00422086018701B7018B
:100040005D2021280B1D4128B70A96303702031D79
:1000500040285D204A21AA20C4304D20C82029080C
:10006000B1003108B200EA203208B4003308B5000C
:100070003108B200B301FC2000210A212B28B7016E
:100080000B11090038304D200C304D2001304D202F
:1000900006304D2002304D20080086003C2107101C
:1000A00007153C210711080086003C21071407159D
:1000B0003C2107113C213C21080042203C213C21ED
:1000C0003C2181304D2056305420453054204E3054
:1000D00054204730542041305420203054204130A7
:1000E00054204C305420203054205330542045307C
:1000F00054204E305420533054204F30542052302E
:1001000054204A21080002304D203C2184304D20EB
:100110005630542049305420533054204930542014
:100120005430542045305420203054205530542031
:100130004E305420C6304D204D3054204530542090
:100140004430542049305420433054204F30542000
:100150004A21080042203C213C213C2183304D2093
:1001600054305420453054204D30542050305420C9
:1001700045305420523054204130542054305420C3
:100180005530542052305420413054204A21080028
:100190001F1545211F19CA281E08A90008000A308A
:1001A00028020318D428D8283730280754200800FC
:1001B0003030280754200800AB01AC01AD012908FC
:1001C000AB002A08AB02031CE728AC0AE2282B0785
:1001D000AD0008000630B600EE2008000310B30C96
:1001E0000310B20C0318F728F528B313F928B31736
:1001F000F928B60BEE2808003208B300B201080057
:100200003308B5070318B40A0800B201B301B401FA
:10021000B5010800203054203408A800B800CF20D1
:10022000B401B3010B30B60032213408A800B90084
:10023000CF20B401B3012E3054200B30B600322150
:100240003408A800BA00CF20B401B3010B30B600C7
:1002500032213408A800CF20B401B3014330542028
:100260004A210800B60B37293308B50008003508C5
:10027000B3070318B40A32290230A100A430A00049
:10028000A00B4029A10B3E2908003030A400A40B8C
:10029000472908001C30A700F530A600F230A50061
:0E02A000A50B5029A60B4E29A70B4C290800D0
:00000001FF
