:020000040000FA
:020000000528D1
:080008002228831603139F0157
:1000100086018701C0308800073081008312C1301B
:100020009F000B118B168B17FF3092000C309D0038
:100030000730920078309B00432086018701B7018A
:100040005E2021280B1D4228B70A0A303702031D03
:1000500041285E2001304E2080304E20F820822042
:100060002908B1003108B200A4203208B4003308D6
:10007000B5003108B200B301B620BA20C4202A2846
:10008000B7010B11090038304E200C304E200130E2
:100090004E2006304E2002304E2008008600F82008
:1000A00007100715F820071108008600F82007142C
:1000B0000715F8200711F820F820080080304E209E
:1000C0002030552056305520453055204E30552093
:1000D00047305520413055202030552041305520A3
:1000E0004C30552020305520533055204530552078
:1000F0004E305520533055204F305520523055202A
:10010000062181281F1501211F1984281E08A90016
:1001100008000A30280203188E2892283730280752
:10012000552008003030280755200800AB01AC01ED
:10013000AD012908AB002A08AB02031CA128AC0AB8
:100140009C282B07AD0008000630B600A820080048
:100150000310B30C0310B20C0318B128AF28B3136B
:10016000B328B317B328B60BA82808003208B30089
:10017000B20108003308B5070318B40A0800B20139
:10018000B301B401B50108003408B800203055208F
:10019000A8008920B401B3010B30B600EE2034086A
:1001A000B900A80089202E305520B401B3010B30CE
:1001B000B600EE203408BA00A8008920B401B301CB
:1001C0000B30B600EE203408A8008920B401B3013A
:1001D000B03055204330552006210800B60BF328D7
:1001E0003308B50008003508B3070318B40AEE2831
:1001F0000230A100A430A000A00BFC28A10BFA281B
:1002000008003030A400A40B032908001C30A7000C
:10021000F530A600F230A500A50B0C29A60B0A2983
:06022000A70B08290800ED
:00000001FF
