:020000040000FA
:020000000528D1
:080008002228831603139F0157
:1000100086018701C0308800073081008312C1301B
:100020009F000B118B168B17FF3092000C309D0038
:100030000730920078309B002D2086018701A001B7
:10004000482021280B1D2C28A00A96302002031DD1
:100050002B284820A0010B110900383038200C3023
:10006000382001303820063038200230382008008F
:1000700086007320071007157320071108008600FB
:1000800073200714071573200711732073200800CD
:100090000230382056303F2056303F2045303F2038
:1000A0004E303F2047303F2041303F2020303F201E
:1000B00041303F204C303F2020303F2053303F2004
:1000C00045303F204E303F2053303F204F303F20BF
:1000D00052303F20812008001F157C201F196E28F8
:1000E0001E08A30008000230A200A430A100A10B4A
:1000F0007728A20B752808003030A400A40B7E28B6
:1001000008001C30A700F530A600F230A500A50BB2
:0C0110008728A60B8528A70B8328080071
:00000001FF
