:020000040000FA
:020000000528D1
:080008002228831603139F0157
:1000100086018701C0308800073081008312C1301B
:100020009F000B118B168B17FF3092000C309D0038
:100030000730920000309B00412086018701B70104
:10004000622021280B1D4028B70A96303702031D75
:100050003F285C20AF20C4304C20F1202908B1009B
:100060003108B20013213208B4003308B50031085A
:10007000B200B3012521292133212A28B7010B1110
:10008000090038304C200C304C2001304C20063018
:100090004C2002304C20080086006521071007150F
:1000A00065210711080086006521071407156521E1
:1000B000071165216521080096309B0073210030EF
:1000C0009B000800412065216521652181304C207D
:1000D00056305320453053204E3053204730532064
:1000E0004130532020305320413053204C30532096
:1000F0002030532053305320453053204E3053206E
:10010000533053204F305320523053207321080076
:1001100002304C20652184304C2056305320493029
:10012000532053305320493053205430532045300E
:10013000532020305320553053204E305320C630AA
:100140004C204D305320453053204430532049300B
:100150005320433053204F30532073210800412057
:1001600065216521652183304C2054305320453072
:1001700053204D30532050305320453053205230BF
:1001800053204130532054305320553053205230A7
:1001900053204130532073210800412065216521FF
:1001A000652181304C20503053205530532045304C
:1001B00053204430532045305320203053204930C1
:1001C00053204E3053204730532052305320453077
:1001D0005320533053204130532052305320732149
:1001E00008001F156E211F19F3281E08A90008001A
:1001F0000A3028020318FD28012937302807532028
:1002000008003030280753200800AB01AC01AD01D5
:100210002908AB002A08AB02031C1029AC0A0B29E1
:100220002B07AD0008000630B600172108000310A8
:10023000B30C0310B20C031820291E29B313222972
:10024000B3172229B60B172908003208B300B201F0
:1002500008003308B5070318B40A0800B201B30157
:10026000B401B5010800203053203408A800B800BC
:10027000F820B401B3010B30B6005B213408A800AC
:10028000B900F820B401B3012E3053200B30B60072
:100290005B213408A800BA00F820B401B3010B3088
:1002A000B6005B213408A800F820B401B301433044
:1002B000532073210800B60B60293308B5000800ED
:1002C0003508B3070318B40A5B290230A100A43033
:1002D000A000A00B6929A10B672908003030A400F9
:1002E000A40B702908001C30A700F530A600F230DE
:1002F000A500A50B7929A60B7729A70B752908005E
:00000001FF
