:020000040000FA
:020000000528D1
:080008002228831603139F0157
:1000100086018701C0308800073081008312C1301B
:100020009F000B118B168B17FF3092000C309D0038
:100030000730920000309B00412086018701B70104
:10004000612021280B1D4028B70A96303702031D76
:100050003F285C20CC20C4304C20F0202908B1007F
:100060003108B20012213208B4003308B50031085B
:10007000B200B3012421282132212A28B7010B1113
:10008000090038304C200C304C2001304C20063018
:100090004C2002304C200800860064210710071510
:1000A00064210711080086006421071407156421E4
:1000B000071164216421080096309B0072219B0186
:1000C0000800412064216421642181304C20563095
:1000D0005320453053204E30532047305320413079
:1000E000532020305320413053204C3053202030B7
:1000F000532053305320453053204E30532053303B
:1001000053204F30532052305320722108000230C8
:100110004C20642184304C205630532049305320E9
:10012000533053204930532054305320453053200E
:1001300020305320553053204E305320C6304C20B1
:100140004D30532045305320443053204930532004
:10015000433053204F305320722108004120642146
:100160006421642183304C20543053204530532087
:100170004D305320503053204530532052305320BF
:1001800041305320543053205530532052305320A7
:1001900041305320722108004120642164216421F0
:1001A00081304C205030532055305320453053205F
:1001B00044305320453053202030532049305320C1
:1001C0004E30532047305320523053204530532077
:1001D00053305320413053205230532072210800B5
:1001E0001F156D211F19F2281E08A90008000A30EA
:1001F00028020318FC28002937302807532008005C
:100200003030280753200800AB01AC01AD012908AC
:10021000AB002A08AB02031C0F29AC0A0A292B07E2
:10022000AD0008000630B600162108000310B30C1C
:100230000310B20C03181F291D29B3132129B3176A
:100240002129B60B162908003208B300B2010800B4
:100250003308B5070318B40A0800B201B301B401AA
:10026000B5010800203053203408A800B800F7205A
:10027000B401B3010B30B6005A213408A800B9000C
:10028000F720B401B3012E3053200B30B6005A21B1
:100290003408A800BA00F720B401B3010B30B6004F
:1002A0005A213408A800F720B401B3014330532089
:1002B00072210800B60B5F293308B5000800350825
:1002C000B3070318B40A5A290230A100A430A000D1
:1002D000A00B6829A10B662908003030A400A40BEC
:1002E0006F2908001C30A700F530A600F230A500E9
:0E02F000A50B7829A60B7629A70B7429080008
:00000001FF
