:020000040000FA
:020000000528D1
:080008002228831603139F0157
:1000100086018701C0308800073081008312C1301B
:100020009F000B118B168B17FF3092000C309D0038
:100030000730920000309B00432086018701B70102
:10004000642021280B1D4228B70A96303702031D71
:100050004128642075215E20B120C4304E20F32059
:100060002908B1003108B20015213208B400330864
:10007000B5003108B200B30127212B2135212C28EE
:10008000B7010B11090038304E200C304E200130E2
:100090004E2006304E2002304E2008008600672198
:1000A000071007156721071108008600672107144C
:1000B00007156721071167216721080096309B000B
:1000C000752100309B0008004320672167216721CC
:1000D00081304E2056305520453055204E30552029
:1000E0004730552041305520203055204130552093
:1000F0004C30552020305520533055204530552068
:100100004E305520533055204F3055205230552019
:100110007521080002304E20672184304E20563071
:100120005520493055205330552049305520543002
:1001300055204530552020305520553055204E3023
:100140005520C6304E204D30552045305520443086
:10015000552049305520433055204F3055207521CA
:100160000800432067216721672183304E205430E7
:100170005520453055204D305520503055204530C4
:10018000552052305520413055205430552055309F
:10019000552052305520413055207521080043200C
:1001A00067216721672181304E205030552055301E
:1001B00055204530552044305520453055202030BD
:1001C0005520493055204E3055204730552052306B
:1001D0005520453055205330552041305520523060
:1001E0005520752108001F1570211F19F5281E08BC
:1001F000A90008000A3028020318FF280329373015
:100200002807552008003030280755200800AB018A
:10021000AC01AD012908AB002A08AB02031C12296E
:10022000AC0A0D292B07AD0008000630B6001921D5
:1002300008000310B30C0310B20C03182229202964
:10024000B3132429B3172429B60B1929080032083F
:10025000B300B20108003308B5070318B40A080058
:10026000B201B301B401B5010800203055203408B3
:10027000A800B800FA20B401B3010B30B6005D212C
:100280003408A800B900FA20B401B3012E3055207B
:100290000B30B6005D213408A800BA00FA20B40182
:1002A000B3010B30B6005D213408A800FA20B40178
:1002B000B3014330552075210800B60B622933087D
:1002C000B50008003508B3070318B40A5D290230E9
:1002D000A100A430A000A00B6B29A10B6929080084
:1002E0003030A400A40B722908001C30A700F530A0
:1002F000A600F230A500A50B7B29A60B7929A70B38
:040300007729080051
:00000001FF
